{
  "_format": "hh-sol-artifact-1",
  "contractName": "AttestationService",
  "sourceName": "contracts/AttestationService.sol",
  "abi": [
    {
      "inputs": [],
      "stateMutability": "nonpayable",
      "type": "constructor"
    },
    {
      "inputs": [],
      "name": "InvalidReceiver",
      "type": "error"
    },
    {
      "inputs": [],
      "name": "InvalidSchema",
      "type": "error"
    },
    {
      "inputs": [],
      "name": "InvalidSignature",
      "type": "error"
    },
    {
      "inputs": [],
      "name": "InvalidTokenId",
      "type": "error"
    },
    {
      "anonymous": false,
      "inputs": [
        {
          "indexed": false,
          "internalType": "address",
          "name": "previousAdmin",
          "type": "address"
        },
        {
          "indexed": false,
          "internalType": "address",
          "name": "newAdmin",
          "type": "address"
        }
      ],
      "name": "AdminChanged",
      "type": "event"
    },
    {
      "anonymous": false,
      "inputs": [
        {
          "indexed": true,
          "internalType": "bytes32",
          "name": "attestationId",
          "type": "bytes32"
        },
        {
          "indexed": true,
          "internalType": "address",
          "name": "recipient",
          "type": "address"
        },
        {
          "indexed": true,
          "internalType": "address",
          "name": "attester",
          "type": "address"
        }
      ],
      "name": "AttestationCreated",
      "type": "event"
    },
    {
      "anonymous": false,
      "inputs": [
        {
          "indexed": true,
          "internalType": "address",
          "name": "beacon",
          "type": "address"
        }
      ],
      "name": "BeaconUpgraded",
      "type": "event"
    },
    {
      "anonymous": false,
      "inputs": [
        {
          "indexed": false,
          "internalType": "uint8",
          "name": "version",
          "type": "uint8"
        }
      ],
      "name": "Initialized",
      "type": "event"
    },
    {
      "anonymous": false,
      "inputs": [
        {
          "indexed": true,
          "internalType": "bytes32",
          "name": "role",
          "type": "bytes32"
        },
        {
          "indexed": true,
          "internalType": "bytes32",
          "name": "previousAdminRole",
          "type": "bytes32"
        },
        {
          "indexed": true,
          "internalType": "bytes32",
          "name": "newAdminRole",
          "type": "bytes32"
        }
      ],
      "name": "RoleAdminChanged",
      "type": "event"
    },
    {
      "anonymous": false,
      "inputs": [
        {
          "indexed": true,
          "internalType": "bytes32",
          "name": "role",
          "type": "bytes32"
        },
        {
          "indexed": true,
          "internalType": "address",
          "name": "account",
          "type": "address"
        },
        {
          "indexed": true,
          "internalType": "address",
          "name": "sender",
          "type": "address"
        }
      ],
      "name": "RoleGranted",
      "type": "event"
    },
    {
      "anonymous": false,
      "inputs": [
        {
          "indexed": true,
          "internalType": "bytes32",
          "name": "role",
          "type": "bytes32"
        },
        {
          "indexed": true,
          "internalType": "address",
          "name": "account",
          "type": "address"
        },
        {
          "indexed": true,
          "internalType": "address",
          "name": "sender",
          "type": "address"
        }
      ],
      "name": "RoleRevoked",
      "type": "event"
    },
    {
      "anonymous": false,
      "inputs": [
        {
          "indexed": true,
          "internalType": "bytes32",
          "name": "schemaId",
          "type": "bytes32"
        }
      ],
      "name": "SchemaCreated",
      "type": "event"
    },
    {
      "anonymous": false,
      "inputs": [
        {
          "indexed": true,
          "internalType": "address",
          "name": "implementation",
          "type": "address"
        }
      ],
      "name": "Upgraded",
      "type": "event"
    },
    {
      "inputs": [],
      "name": "ATTESTATION_CREATOR_ROLE",
      "outputs": [
        {
          "internalType": "bytes32",
          "name": "",
          "type": "bytes32"
        }
      ],
      "stateMutability": "view",
      "type": "function"
    },
    {
      "inputs": [],
      "name": "DEFAULT_ADMIN_ROLE",
      "outputs": [
        {
          "internalType": "bytes32",
          "name": "",
          "type": "bytes32"
        }
      ],
      "stateMutability": "view",
      "type": "function"
    },
    {
      "inputs": [
        {
          "internalType": "address",
          "name": "recipient",
          "type": "address"
        },
        {
          "internalType": "uint256",
          "name": "tokenId",
          "type": "uint256"
        }
      ],
      "name": "createMissionEnrollmentAttestation",
      "outputs": [
        {
          "internalType": "bytes32",
          "name": "",
          "type": "bytes32"
        }
      ],
      "stateMutability": "nonpayable",
      "type": "function"
    },
    {
      "inputs": [],
      "name": "createMissionEnrollmentSchema",
      "outputs": [],
      "stateMutability": "nonpayable",
      "type": "function"
    },
    {
      "inputs": [],
      "name": "getMissionEnrollmentSchema",
      "outputs": [
        {
          "internalType": "bytes32",
          "name": "",
          "type": "bytes32"
        }
      ],
      "stateMutability": "view",
      "type": "function"
    },
    {
      "inputs": [
        {
          "internalType": "bytes32",
          "name": "role",
          "type": "bytes32"
        }
      ],
      "name": "getRoleAdmin",
      "outputs": [
        {
          "internalType": "bytes32",
          "name": "",
          "type": "bytes32"
        }
      ],
      "stateMutability": "view",
      "type": "function"
    },
    {
      "inputs": [
        {
          "internalType": "address",
          "name": "account",
          "type": "address"
        }
      ],
      "name": "grantAttestationCreatorRole",
      "outputs": [],
      "stateMutability": "nonpayable",
      "type": "function"
    },
    {
      "inputs": [
        {
          "internalType": "bytes32",
          "name": "role",
          "type": "bytes32"
        },
        {
          "internalType": "address",
          "name": "account",
          "type": "address"
        }
      ],
      "name": "grantRole",
      "outputs": [],
      "stateMutability": "nonpayable",
      "type": "function"
    },
    {
      "inputs": [
        {
          "internalType": "bytes32",
          "name": "role",
          "type": "bytes32"
        },
        {
          "internalType": "address",
          "name": "account",
          "type": "address"
        }
      ],
      "name": "hasRole",
      "outputs": [
        {
          "internalType": "bool",
          "name": "",
          "type": "bool"
        }
      ],
      "stateMutability": "view",
      "type": "function"
    },
    {
      "inputs": [
        {
          "internalType": "address",
          "name": "_eas",
          "type": "address"
        },
        {
          "internalType": "address",
          "name": "_schemaRegistry",
          "type": "address"
        }
      ],
      "name": "initialize",
      "outputs": [],
      "stateMutability": "nonpayable",
      "type": "function"
    },
    {
      "inputs": [
        {
          "internalType": "address",
          "name": "account",
          "type": "address"
        }
      ],
      "name": "isApprovedAttestationCreator",
      "outputs": [
        {
          "internalType": "bool",
          "name": "",
          "type": "bool"
        }
      ],
      "stateMutability": "view",
      "type": "function"
    },
    {
      "inputs": [],
      "name": "proxiableUUID",
      "outputs": [
        {
          "internalType": "bytes32",
          "name": "",
          "type": "bytes32"
        }
      ],
      "stateMutability": "view",
      "type": "function"
    },
    {
      "inputs": [
        {
          "internalType": "bytes32",
          "name": "role",
          "type": "bytes32"
        },
        {
          "internalType": "address",
          "name": "account",
          "type": "address"
        }
      ],
      "name": "renounceRole",
      "outputs": [],
      "stateMutability": "nonpayable",
      "type": "function"
    },
    {
      "inputs": [
        {
          "internalType": "address",
          "name": "account",
          "type": "address"
        }
      ],
      "name": "revokeAttestationCreatorRole",
      "outputs": [],
      "stateMutability": "nonpayable",
      "type": "function"
    },
    {
      "inputs": [
        {
          "internalType": "bytes32",
          "name": "role",
          "type": "bytes32"
        },
        {
          "internalType": "address",
          "name": "account",
          "type": "address"
        }
      ],
      "name": "revokeRole",
      "outputs": [],
      "stateMutability": "nonpayable",
      "type": "function"
    },
    {
      "inputs": [
        {
          "internalType": "bytes4",
          "name": "interfaceId",
          "type": "bytes4"
        }
      ],
      "name": "supportsInterface",
      "outputs": [
        {
          "internalType": "bool",
          "name": "",
          "type": "bool"
        }
      ],
      "stateMutability": "view",
      "type": "function"
    },
    {
      "inputs": [
        {
          "internalType": "address",
          "name": "newImplementation",
          "type": "address"
        }
      ],
      "name": "upgradeTo",
      "outputs": [],
      "stateMutability": "nonpayable",
      "type": "function"
    },
    {
      "inputs": [
        {
          "internalType": "address",
          "name": "newImplementation",
          "type": "address"
        },
        {
          "internalType": "bytes",
          "name": "data",
          "type": "bytes"
        }
      ],
      "name": "upgradeToAndCall",
      "outputs": [],
      "stateMutability": "payable",
      "type": "function"
    },
    {
      "inputs": [
        {
          "internalType": "bytes32",
          "name": "attestationId",
          "type": "bytes32"
        }
      ],
      "name": "verifyAttestation",
      "outputs": [
        {
          "internalType": "bool",
          "name": "",
          "type": "bool"
        }
      ],
      "stateMutability": "view",
      "type": "function"
    }
  ],
  "bytecode": "0x60a06040523060805234801561001457600080fd5b5061001d610022565b6100e1565b600054610100900460ff161561008e5760405162461bcd60e51b815260206004820152602760248201527f496e697469616c697a61626c653a20636f6e747261637420697320696e697469604482015266616c697a696e6760c81b606482015260840160405180910390fd5b60005460ff908116146100df576000805460ff191660ff9081179091556040519081527f7f26b83ff96e1f2b6a682f133852f6798a09c465da95921460cefb38474024989060200160405180910390a15b565b608051611f84610118600039600081816105b3015281816105f30152818161088f015281816108cf015261095e0152611f846000f3fe6080604052600436106101145760003560e01c80634f1ef286116100a057806391d148541161006457806391d1485414610305578063a217fddf14610325578063bd4620491461033a578063d547741f1461036e578063e27fadab1461038e57600080fd5b80634f1ef2861461028857806352d1902d1461029b5780635956ce45146102b0578063624b04bd146102c5578063677339ce146102e557600080fd5b80632f2ff15d116100e75780632f2ff15d146101ce57806336568abe146101ee5780633659cfe61461020e578063485cc9551461022e5780634a0145b61461024e57600080fd5b806301ffc9a71461011957806308f469571461014e5780631ecf2fbf1461016e578063248a9ca314610190575b600080fd5b34801561012557600080fd5b506101396101343660046117e5565b6103a3565b60405190151581526020015b60405180910390f35b34801561015a57600080fd5b5061013961016936600461180f565b6103da565b34801561017a57600080fd5b5061018e61018936600461183d565b6104d0565b005b34801561019c57600080fd5b506101c06101ab36600461180f565b60009081526065602052604090206001015490565b604051908152602001610145565b3480156101da57600080fd5b5061018e6101e936600461185a565b610501565b3480156101fa57600080fd5b5061018e61020936600461185a565b61052b565b34801561021a57600080fd5b5061018e61022936600461183d565b6105a9565b34801561023a57600080fd5b5061018e61024936600461188a565b610688565b34801561025a57600080fd5b5061013961026936600461183d565b6001600160a01b03166000908152610100602052604090205460ff1690565b61018e610296366004611951565b610885565b3480156102a757600080fd5b506101c0610951565b3480156102bc57600080fd5b5060ff546101c0565b3480156102d157600080fd5b506101c06102e03660046119e4565b610a04565b3480156102f157600080fd5b5061018e61030036600461183d565b610d16565b34801561031157600080fd5b5061013961032036600461185a565b610dca565b34801561033157600080fd5b506101c0600081565b34801561034657600080fd5b506101c07ffe59eece44efc73d9bec857e15b77961120d43be620d135f2f6356bc328d55f181565b34801561037a57600080fd5b5061018e61038936600461185a565b610df5565b34801561039a57600080fd5b5061018e610e1a565b60006001600160e01b03198216637965db0b60e01b14806103d457506301ffc9a760e01b6001600160e01b03198316145b92915050565b6000816104275760405162461bcd60e51b8152602060048201526016602482015275125b9d985b1a5908185d1d195cdd185d1a5bdb88125160521b60448201526064015b60405180910390fd5b60fb546040516328c44a9960e21b8152600481018490526000916001600160a01b03169063a3112a6490602401600060405180830381865afa158015610471573d6000803e3d6000fd5b505050506040513d6000823e601f3d908101601f191682016040526104999190810190611ab1565b8051909150831480156104c9575060e08101516001600160a01b03166000908152610100602052604090205460ff165b9392505050565b60006104db81610ecc565b506001600160a01b0316600090815261010060205260409020805460ff19166001179055565b60008281526065602052604090206001015461051c81610ecc565b6105268383610ed6565b505050565b6001600160a01b038116331461059b5760405162461bcd60e51b815260206004820152602f60248201527f416363657373436f6e74726f6c3a2063616e206f6e6c792072656e6f756e636560448201526e103937b632b9903337b91039b2b63360891b606482015260840161041e565b6105a58282610f5c565b5050565b6001600160a01b037f00000000000000000000000000000000000000000000000000000000000000001630036105f15760405162461bcd60e51b815260040161041e90611ba8565b7f00000000000000000000000000000000000000000000000000000000000000006001600160a01b031661063a600080516020611e4d833981519152546001600160a01b031690565b6001600160a01b0316146106605760405162461bcd60e51b815260040161041e90611bf4565b61066981610fc3565b6040805160008082526020820190925261068591839190610fce565b50565b600054610100900460ff16158080156106a85750600054600160ff909116105b806106c25750303b1580156106c2575060005460ff166001145b6107255760405162461bcd60e51b815260206004820152602e60248201527f496e697469616c697a61626c653a20636f6e747261637420697320616c72656160448201526d191e481a5b9a5d1a585b1a5e995960921b606482015260840161041e565b6000805460ff191660011790558015610748576000805461ff0019166101001790555b6001600160a01b0383161580159061076857506001600160a01b03821615155b6107a65760405162461bcd60e51b815260206004820152600f60248201526e496e76616c6964206164647265737360881b604482015260640161041e565b6107ae611139565b6107b6611139565b60fb80546001600160a01b038086166001600160a01b03199283161790925560fc8054928516929091169190911790556107f1600033610ed6565b73f0bc5cc2b4866daaecb069430c60b245200770376000526101006020527f5e517a2d9bfce1f1b4ef393349285b4e1481280ea0bc3400959586ea76843177805460ff191660011790558015610526576000805461ff0019169055604051600181527f7f26b83ff96e1f2b6a682f133852f6798a09c465da95921460cefb38474024989060200160405180910390a1505050565b6001600160a01b037f00000000000000000000000000000000000000000000000000000000000000001630036108cd5760405162461bcd60e51b815260040161041e90611ba8565b7f00000000000000000000000000000000000000000000000000000000000000006001600160a01b0316610916600080516020611e4d833981519152546001600160a01b031690565b6001600160a01b03161461093c5760405162461bcd60e51b815260040161041e90611bf4565b61094582610fc3565b6105a582826001610fce565b6000306001600160a01b037f000000000000000000000000000000000000000000000000000000000000000016146109f15760405162461bcd60e51b815260206004820152603860248201527f555550535570677261646561626c653a206d757374206e6f742062652063616c60448201527f6c6564207468726f7567682064656c656761746563616c6c0000000000000000606482015260840161041e565b50600080516020611e4d83398151915290565b336000908152610100602052604081205460ff16610a725760405162461bcd60e51b815260206004820152602560248201527f4e6f7420617574686f72697a656420746f20637265617465206174746573746160448201526474696f6e7360d81b606482015260840161041e565b60ff54610ab65760405162461bcd60e51b815260206004820152601260248201527114d8da195b58481b9bdd0818dc99585d195960721b604482015260640161041e565b6001600160a01b038316610b005760405162461bcd60e51b8152602060048201526011602482015270125b9d985b1a59081c9958da5c1a595b9d607a1b604482015260640161041e565b81600003610b435760405162461bcd60e51b815260206004820152601060248201526f125b9d985b1a59081d1bdad95b88125160821b604482015260640161041e565b60408051808201825260fb546001600160a01b03908116825260fc5481166020808401919091528351918716908201526101409281018390526000610160808301829052606083015260116101808301527010985cd95b985b5948141c9bdd1bd8dbdb607a1b6101a080840191909152608083015260176101c083018190527f455448476c6f62616c204272757373656c7320323032340000000000000000006101e08085019190915260a08401526102008301527f496e7465726e6174696f6e616c204861636b6174686f6e0000000000000000006102208084019190915260c083015261024080830182905260e08301526016610260830152752d34b73732b5b2902932b9b1bab29026b4b9b9b4b7b760511b610280808401919091524261010084015273f0bc5cc2b4866daaecb069430c60b2452007703761012084015293820193909352600c6102a08201526b115054c8141c9bdd1bd8dbdb60a21b6102c08201529091906102e00160405160208183030381529060405290506000610cd28360ff548888866111a6565b60405190915033906001600160a01b0388169083907f63f86f3e95d67d75fed996a7db68f9e7eabf0600abbd54fccabf34ec3b5fa4a790600090a495945050505050565b6000610d2181610ecc565b73f0bc5cc2b4866daaecb069430c60b24520077036196001600160a01b03831601610da75760405162461bcd60e51b815260206004820152603060248201527f43616e6e6f74207265766f6b6520726f6c652066726f6d206d61696e2061747460448201526f32b9ba30ba34b7b71031b932b0ba37b960811b606482015260840161041e565b506001600160a01b0316600090815261010060205260409020805460ff19169055565b60009182526065602090815260408084206001600160a01b0393909316845291905290205460ff1690565b600082815260656020526040902060010154610e1081610ecc565b6105268383610f5c565b6000610e2581610ecc565b60ff5415610e6e5760405162461bcd60e51b815260206004820152601660248201527514d8da195b5848185b1c9958591e4818dc99585d195960521b604482015260640161041e565b6040805180820190915260fb546001600160a01b03908116825260fc54166020820152610e9a816112f1565b60ff8190556040517fed68f5afea10be5233231e5d15186bf1c9c0b9f6d3a767404d90688bccf293af90600090a25050565b6106858133611319565b610ee08282610dca565b6105a55760008281526065602090815260408083206001600160a01b03851684529091529020805460ff19166001179055610f183390565b6001600160a01b0316816001600160a01b0316837f2f8788117e7eff1d82e926ec794901d17c78024a50270940304540a733656f0d60405160405180910390a45050565b610f668282610dca565b156105a55760008281526065602090815260408083206001600160a01b0385168085529252808320805460ff1916905551339285917ff6391f5c32d9c69d2a47ea670b442974b53935d1edc7fd64eb21e047a839171b9190a45050565b60006105a581610ecc565b7f4910fdfa16fed3260ed0e7147f7cc6da11a60208b5b9406d12a635614ffd91435460ff16156110015761052683611372565b826001600160a01b03166352d1902d6040518163ffffffff1660e01b8152600401602060405180830381865afa92505050801561105b575060408051601f3d908101601f1916820190925261105891810190611c40565b60015b6110be5760405162461bcd60e51b815260206004820152602e60248201527f45524331393637557067726164653a206e657720696d706c656d656e7461746960448201526d6f6e206973206e6f74205555505360901b606482015260840161041e565b600080516020611e4d833981519152811461112d5760405162461bcd60e51b815260206004820152602960248201527f45524331393637557067726164653a20756e737570706f727465642070726f786044820152681a58589b195555525160ba1b606482015260840161041e565b5061052683838361140e565b600054610100900460ff166111a45760405162461bcd60e51b815260206004820152602b60248201527f496e697469616c697a61626c653a20636f6e7472616374206973206e6f74206960448201526a6e697469616c697a696e6760a81b606482015260840161041e565b565b6000846111c657604051635f9bd90760e11b815260040160405180910390fd5b6001600160a01b0384166111ed57604051631e4ec46b60e01b815260040160405180910390fd5b8260000361120e576040516307ed98ed60e31b815260040160405180910390fd5b815160000361123057604051638baa579f60e01b815260040160405180910390fd5b604080518082018252868152815160c0810183526001600160a01b03808816825260006020838101829052600184870152606084018290526080840188905260a08401919091528301919091528851925163f17325e760e01b81529192169063f17325e7906112a3908490600401611c85565b6020604051808303816000875af11580156112c2573d6000803e3d6000fd5b505050506040513d601f19601f820116820180604052508101906112e69190611c40565b979650505050505050565b6000806040518060e0016040528060bb8152602001611e6d60bb913990506104c98382611439565b6113238282610dca565b6105a557611330816114b4565b61133b8360206114c6565b60405160200161134c929190611d08565b60408051601f198184030181529082905262461bcd60e51b825261041e91600401611d7d565b6001600160a01b0381163b6113df5760405162461bcd60e51b815260206004820152602d60248201527f455243313936373a206e657720696d706c656d656e746174696f6e206973206e60448201526c1bdd08184818dbdb9d1c9858dd609a1b606482015260840161041e565b600080516020611e4d83398151915280546001600160a01b0319166001600160a01b0392909216919091179055565b61141783611662565b6000825111806114245750805b156105265761143383836116a2565b50505050565b6020820151604051630c1af44f60e31b81526000916001600160a01b0316906360d7a278906114719085908590600190600401611d90565b6020604051808303816000875af1158015611490573d6000803e3d6000fd5b505050506040513d601f19601f820116820180604052508101906104c99190611c40565b60606103d46001600160a01b03831660145b606060006114d5836002611dd9565b6114e0906002611df0565b67ffffffffffffffff8111156114f8576114f86118b8565b6040519080825280601f01601f191660200182016040528015611522576020820181803683370190505b509050600360fc1b8160008151811061153d5761153d611e03565b60200101906001600160f81b031916908160001a905350600f60fb1b8160018151811061156c5761156c611e03565b60200101906001600160f81b031916908160001a9053506000611590846002611dd9565b61159b906001611df0565b90505b6001811115611613576f181899199a1a9b1b9c1cb0b131b232b360811b85600f16601081106115cf576115cf611e03565b1a60f81b8282815181106115e5576115e5611e03565b60200101906001600160f81b031916908160001a90535060049490941c9361160c81611e19565b905061159e565b5083156104c95760405162461bcd60e51b815260206004820181905260248201527f537472696e67733a20686578206c656e67746820696e73756666696369656e74604482015260640161041e565b61166b81611372565b6040516001600160a01b038216907fbc7cd75a20ee27fd9adebab32041f755214dbc6bffa90cc0225b39da2e5c2d3b90600090a250565b60606104c98383604051806060016040528060278152602001611f28602791396060600080856001600160a01b0316856040516116df9190611e30565b600060405180830381855af49150503d806000811461171a576040519150601f19603f3d011682016040523d82523d6000602084013e61171f565b606091505b50915091506117308683838761173a565b9695505050505050565b606083156117a95782516000036117a2576001600160a01b0385163b6117a25760405162461bcd60e51b815260206004820152601d60248201527f416464726573733a2063616c6c20746f206e6f6e2d636f6e7472616374000000604482015260640161041e565b50816117b3565b6117b383836117bb565b949350505050565b8151156117cb5781518083602001fd5b8060405162461bcd60e51b815260040161041e9190611d7d565b6000602082840312156117f757600080fd5b81356001600160e01b0319811681146104c957600080fd5b60006020828403121561182157600080fd5b5035919050565b6001600160a01b038116811461068557600080fd5b60006020828403121561184f57600080fd5b81356104c981611828565b6000806040838503121561186d57600080fd5b82359150602083013561187f81611828565b809150509250929050565b6000806040838503121561189d57600080fd5b82356118a881611828565b9150602083013561187f81611828565b634e487b7160e01b600052604160045260246000fd5b604051610140810167ffffffffffffffff811182821017156118f2576118f26118b8565b60405290565b604051601f8201601f1916810167ffffffffffffffff81118282101715611921576119216118b8565b604052919050565b600067ffffffffffffffff821115611943576119436118b8565b50601f01601f191660200190565b6000806040838503121561196457600080fd5b823561196f81611828565b9150602083013567ffffffffffffffff81111561198b57600080fd5b8301601f8101851361199c57600080fd5b80356119af6119aa82611929565b6118f8565b8181528660208385010111156119c457600080fd5b816020840160208301376000602083830101528093505050509250929050565b600080604083850312156119f757600080fd5b8235611a0281611828565b946020939093013593505050565b805167ffffffffffffffff81168114611a2857600080fd5b919050565b8051611a2881611828565b80518015158114611a2857600080fd5b60005b83811015611a63578181015183820152602001611a4b565b50506000910152565b600082601f830112611a7d57600080fd5b8151611a8b6119aa82611929565b818152846020838601011115611aa057600080fd5b6117b3826020830160208701611a48565b600060208284031215611ac357600080fd5b815167ffffffffffffffff80821115611adb57600080fd5b908301906101408286031215611af057600080fd5b611af86118ce565b8251815260208301516020820152611b1260408401611a10565b6040820152611b2360608401611a10565b6060820152611b3460808401611a10565b608082015260a083015160a0820152611b4f60c08401611a2d565b60c0820152611b6060e08401611a2d565b60e0820152610100611b73818501611a38565b908201526101208381015183811115611b8b57600080fd5b611b9788828701611a6c565b918301919091525095945050505050565b6020808252602c908201527f46756e6374696f6e206d7573742062652063616c6c6564207468726f7567682060408201526b19195b1959d85d1958d85b1b60a21b606082015260800190565b6020808252602c908201527f46756e6374696f6e206d7573742062652063616c6c6564207468726f7567682060408201526b6163746976652070726f787960a01b606082015260800190565b600060208284031215611c5257600080fd5b5051919050565b60008151808452611c71816020860160208601611a48565b601f01601f19169290920160200192915050565b60208152815160208201526000602083015160408084015260018060a01b03815116606084015267ffffffffffffffff60208201511660808401526040810151151560a0840152606081015160c0840152608081015160c060e0850152611cf0610120850182611c59565b905060a0820151610100850152809250505092915050565b7f416363657373436f6e74726f6c3a206163636f756e7420000000000000000000815260008351611d40816017850160208801611a48565b7001034b99036b4b9b9b4b733903937b6329607d1b6017918401918201528351611d71816028840160208801611a48565b01602801949350505050565b6020815260006104c96020830184611c59565b606081526000611da36060830186611c59565b6001600160a01b0394909416602083015250901515604090910152919050565b634e487b7160e01b600052601160045260246000fd5b80820281158282048414176103d4576103d4611dc3565b808201808211156103d4576103d4611dc3565b634e487b7160e01b600052603260045260246000fd5b600081611e2857611e28611dc3565b506000190190565b60008251611e42818460208701611a48565b919091019291505056fe360894a13ba1a3210667c828492db98dca3e2076cc3735a920a3ca505d382bbc616464726573732075736572416464726573732c737472696e672076657269666965644e616d652c737472696e672070726f6f664d6574686f642c737472696e67206576656e744e616d652c737472696e67206576656e74547970652c737472696e672061737369676e6564526f6c652c737472696e67206d697373696f6e4e616d652c75696e743235362074696d657374616d702c616464726573732061747465737465722c737472696e672070726f6f6650726f746f636f6c416464726573733a206c6f772d6c6576656c2064656c65676174652063616c6c206661696c6564a2646970667358221220ffddf52ac2941122c733903b67c3514deaa65c45890bcfaaf17bcdb6599a54d064736f6c63430008140033",
  "linkReferences": {},
  "deployedLinkReferences": {}
}